:020000041000EA
:1000000000B5324B212058609868022188439860DF
:10001000D860186158612E4B002199600221596106
:100020000121F02299502B49196001219960352056
:1000300000F044F80222904214D00621196600F024
:1000400034F8196E01211966002018661A6600F04E
:100050002CF8196E196E196E052000F02FF8012189
:100060000842F9D1002199601B49196000215960AB
:100070001A491B48016001219960EB211966A021F2
:10008000196600F012F800219960164914480160C1
:100090000121996001BC002800D000471248134993
:1000A000086003C880F30888084703B5996A0420EC
:1000B0000142FBD001200142F8D103BD02B5186610
:1000C0001866FFF7F2FF186E186E02BD00000240BE
:1000D000000000180000070000035F00212200005C
:1000E000F4000018222000A00001001008ED00E03C
:1000F00000000000000000000000000074B24E7A12
:1001000000200420F7010010C3010010C5010010F9
:10011000C1010010C1010010C1010010C101001097
:10012000C1010010C1010010C1010010C701001081
:10013000C1010010C1010010C9010010CB01001065
:10014000CD010010CD010010CD010010CD01001037
:10015000CD010010CD010010CD010010CD01001027
:10016000CD010010CD010010CD010010CD01001017
:10017000CD010010CD010010CD010010CD01001007
:10018000CD010010CD010010CD010010CD010010F7
:10019000CD010010CD010010CD010010CD010010E7
:1001A000CD010010CD010010CD010010CD010010D7
:1001B000CD010010CD010010CD010010CD010010C7
:1001C00000BE00BE00BE00BE00BE00BEEFF3058054
:1001D000103800BEF2EB88713C4301105843011007
:1001E0003402001090A31AE700201F49086006C8D7
:1001F00081F3088810471D48006800282FD10DA4FE
:100200000ECC002902D000F012F8F9E71849194A7B
:10021000002000E001C19142FCD1174988471749ED
:1002200088471749884700BEFDE701C901C29A42C5
:10023000FBD3704758430110C00000204C0F002032
:100240000452011000000420000004200452011098
:1002500040100420401004200000000070470948AE
:1002600003F052FE0047000008ED00E0000000D05F
:10027000700F00200C9E0220412E0010211A001049
:10028000112F00105756000006005250ABB36053B8
:100290004622011006005250861C03025122011012
:1002A000060052505422A29D6122011005005250B6
:1002B000DE65F46804520110F8B5C04610B5064C6E
:1002C0002378002B07D1054B002B02D0044800E017
:1002D00000BF0123237010BD881000200000000023
:1002E000E0870010044B10B5002B03D003490448ED
:1002F00000E000BF10BDC046000000008C100020D0
:10030000E08700100023024A1360024A136070471E
:10031000181300201C13002037B5040005F0EAFF75
:100320000A4D0B4A0B482968126800880A4B1201D3
:100330001B88C9000090200006F066F9200007F035
:1003400006FF2B681818286037BDC0461813002018
:100350001C1300206C7002207270022037B504005C
:1003600005F0DAFF06210A4D0A4A2868126841435F
:1003700009480A4B00881B88D2000090200006F034
:1003800043F9200007F0E3FE2B681818286037BDFA
:10039000181300201C1300206C70022072700220C1
:1003A00007B56B4618716A46002301A85371FFF721
:1003B000B3FF07BD07B56B4618716A46002301A855
:1003C0005371FFF7CBFF07BD10B52020FFF7E8FF03
:1003D00010BD70B505000C00002C04DD2800FFF7EF
:1003E000DFFF013CF8E770BD10B50400002C03DD11
:1003F000FFF7EAFF013CF9E710BD00001C4B10B508
:100400001A681C4B1B689A4230D20A2310205343AF
:1004100019491A4CCA18527822705A5C02330240A9
:1004200059186270A01C082204F0DCFE144807F082
:100430000BFA144B14211B6820001A0A23736273F1
:100440001A0C1B0EE373104BA2731B681A0A237459
:1004500062741A0C1B0EE374A27405F099FE030A71
:1004600020756375030C000EA375E07510BDC046C2
:100470002C1300208C1300207D700220001004201B
:100480009C980220B41000209013002070B51E4CE0
:100490001421627D257DA37D12022A43E57D1B0484
:1004A0001A432D062000154305F072FE854228D11F
:1004B0002278164BA11C1A606278154B15481A70E9
:1004C000082204F08FFE617B237BA27B0902194383
:1004D000E37B120411431B060F4A0B43617C13603C
:1004E000237CA27C09021943E37C120411431B06FE
:1004F0000A4A0B430A48F021136007F0CBF9094B75
:1005000018600023237070BD00100420D86B0220F7
:100510009B98022093980220B41000209013002092
:100520009C980220146C0220F8B5FFF7EBFE1F2305
:100530009A271D4D1D4C2B801D4B9C201C80FFF7C6
:100540002FFF12219520FFF744FF9920FFF728FF86
:10055000184A194E136801331360002338003360C2
:10056000FFF71EFF1F23124A122013802C80FFF773
:100570003BFF1F232B800E4B38001C80FFF710FF22
:100580000C4A1368013313600E2BE6D1002396202A
:100590003360FFF705FF12219520FFF71AFF932024
:1005A000FFF7FEFEF8BDC04672700220FF07000094
:1005B0006C7002201C13002018130020F8B50027CF
:1005C0000122204B204E1C68204B214D1F60214BE7
:1005D0001A60102C0FDC1F2310213380091B1E4BC7
:1005E000114195202B80FFF7F4FE01235B423780F9
:1005F0002B80FFF7E9FE00233380013B174F2B8050
:10060000122C05DC3800FFF787FE122C0AD1F8BD4A
:1006100003212E20FFF7DDFE20000F383818FFF7EA
:100620007BFEF4E7FFF7D0FE112CF0D01F23112141
:100630003380091B084B952049102B80FFF7C9FE1A
:10064000E5E7C046146C0220727002201C130020E3
:100650006C70022018130020FF0700009C980220F5
:10066000F7B5214D2B68002B3CD0204B204C19684E
:1006700000220131200005F01DFE2F23461C2968B1
:1006800023540022301905F015FE0E223318019371
:10069000184B194D1A60194B0D3A1A60184B1F2749
:1006A0001D801023019A174E9B1AD90FC9184910A3
:1006B00095203780FFF78DFE114B35801F80FFF7A7
:1006C00083FE2000FFF728FEFFF77EFE11200C4B73
:1006D00037801D80019BC01AC10F09184910952051
:1006E000FFF777FEF7BDC0468C1300202C130020C7
:1006F000909902201C130020FF070000181300200F
:100700006C700220727002200123F7B50A24374E64
:10071000374F33603B685C43364BE418002300934B
:1007200001221F21344B35481A60354B354A9C460F
:100730001380354B00681980009B39685B1898421C
:1007400050DD25781020290001400191054201D09B
:10075000113810802D480068984204D1002313807E
:100760006246294B1A80019B5B20002B00D13B384D
:10077000FFF716FE250062782B1B9A4204DDA8784D
:10078000FFF70EFE0135F6E7019B5D20002B00D13F
:100790003D38FFF705FE09206378C01AFFF724FEF5
:1007A00023785B061AD51A48FFF7B6FDFFF70CFE53
:1007B000237803207F2B16D91648FFF7ADFD336849
:1007C0000A3401333360009B013300930D2BA7D112
:1007D000FFF746FF0022104B1A70F7BD0320FFF70A
:1007E00003FEE3E71220FFF7FFFDE8E71C130020FC
:1007F000901300207D700220181300208C1300201D
:10080000FF070000727002206C7002202C13002081
:10081000E5870010EA8700108D9902200023F0B5CB
:100820009E4A9F4D87B09F482B60136007F00CF8DD
:10083000002800D130E19C4F9C48390007F0CAF8ED
:10084000002800D128E18023994CDB000193994EC8
:1008500037223100984B954807F0E4F8002841D141
:100860003900924807F0B6F8002800D1B5E0914C65
:1008700037222100904B8D4807F0D4F8002800D192
:10088000ABE010261022A37D1E401342EFD1637D02
:10089000042BECDD1A1F0192A218127A2E2AE6D13F
:1008A000E3185A79542A73D19A79582ADFD1DB791F
:1008B000542BDCD12B687E4F02930834029BB34249
:1008C000D5DD7B78019A9A4209D12100B81C07F046
:1008D00027FF002803D140223B7813433B700A379F
:1008E0000136EBE710201023B17D727D08401942DC
:1008F00004D0012A02D1337A2E2B14D03F230B408F
:100900002370002815D0022A13D16A4B1E7A2E2E8E
:100910000FD15B7A2E2B0CD16270A370E3702B6821
:100920000A3401332B60019B013B0193002B8ED1D4
:1009300096E702260B0033403142F4D1002810D054
:100940005C4EA01C9A4208DD082B06D0F118097AEB
:100950002E29E8D0C1540133F4E79A42E3D1627002
:10096000DDE7042ADFDD53498B1818792E28DAD108
:1009700058795028D7D198795028D4D1DB79322BA7
:10098000D1D1043A6270A01C083104F02BFCC6E7F8
:10099000422A00D06BE79A794D2A00D067E7DB79CD
:1009A000502B00D063E72B68414F02930834029B21
:1009B000B34200DC5BE77B78019A9A420AD12100BE
:1009C000B81C07F0ADFE002804D180223B785242CB
:1009D00013433B700A370136E9E700212B68013BDE
:1009E0000593334B059A8A4256DD18000122DC7AC2
:1009F0000A300192022C08D185782E2D05D1C278BB
:100A00002E3A501E8241D2B20192102518789F7A58
:100A10008446284207D12800384045426841019A5F
:100A2000404202400192604610257840284216D18B
:100A30005E781D00201CB44200D9301CC0B21818CA
:100A400004900498A84224D0A8780135EA7A02904C
:100A500003929042F5D00298039DA84202D8019AD1
:100A6000002A13D1624618009A725A780A301F7011
:100A70005C7042709A1C1478957A947215700132E9
:100A80009042F8D1002901D00239143B01310A33D8
:100A9000A8E7B442E3D2E5E707B0F0BD2C1300208D
:100AA0008C1300209C980220BC21011030130020E0
:100AB0007D7002205C130020E08700100023094AAB
:100AC00010B51360084A1360084A13600422084BEB
:100AD0001A70FFF729FDFFF771FD0122054B1A700F
:100AE00010BDC0468C1300202C1300209013002052
:100AF0008D9902208E9902202F22054B10B51A7075
:100B000000225A70034B01321A60FFF7D7FF10BD65
:100B10009C980220146C0220F7B51C4F3E68002EF2
:100B200033D01B4B1B4D1B68013B2B601A4B1B78B2
:100B300001932C68002C19DD0A216143174B5B18C7
:100B40005B789E420FD11022144BCB5C1340019A6C
:100B50009A4208D1114B023132001148C91807F0EE
:100B6000DFFD002802D0013C2C60E2E70D4B1A6843
:100B7000944200DA1C600C3CE243D21714401A681D
:100B8000944200DD1C6000233B60F7BDD86B02205F
:100B90008C1300202C1300209B9802207D700220D3
:100BA000939802209013002010B5040007F0CFFAAC
:100BB000FC220A4BD2001A801F22094B1A80094BD3
:100BC0001D3A1A601423181AC30F074A1B185B102A
:100BD00020001360FFF7A0FB10BDC046727002201A
:100BE0006C7002201C13002018130020F8B5134C61
:100BF000134D23682A68934205DA23685A1C226041
:100C0000104AD05CF8BD104E300006F092FC00286F
:100C100001D10020F6E780270023FF003A003000D2
:100C20000849236006F0BEFC2860B84202DA3000B2
:100C300006F0FAFD2B68002BDFD1EAE7986C022062
:100C40009C6C0220909902201C6C022010B5FFF7CA
:100C5000CDFF0D28FBD010BD07B50021A022F02349
:100C60001000009105F06AFB07BD0000F7B5BF4B0F
:100C7000187803283ED807F063FD04003E00B70053
:100C80004901BB4E300006F0CFFDFFF7E5FFB94B41
:100C90001968B94B1B68994201D3042328E00A2341
:100CA0004B43B649B6485A180260585C400601D416
:100CB00002231DE0B34D5478023359182200280056
:100CC00004F090FAB0490522601904F08BFAAF489D
:100CD00006F0BAFD2900300006F032FC0028E7D00B
:100CE0000023AB4A1360AB4A1360AB4A1360013375
:100CF0009E4A1370F7BD00271B213C00A74BA84E4E
:100D0000A84AA54D3380A84B11601F80A74A2B68C5
:100D10001360FFF79BFF0A281BD1994B1E221B680B
:100D20001B787F2B00D90F222B6801332B60934255
:100D3000E0DB8F4806F078FDBAE78027192CE8DD64
:100D40001A2CEAD1FFF782FF0A28E6D00028F9D151
:100D5000E3E70028E1D009280CD120233B4301938D
:100D600001980134FFF726FB192CE9DC07231C420C
:100D7000F6D1CEE75E2824D1FFF768FF0A28CCD051
:100D80000028CAD0012357280BD0582806D1FC23AD
:100D9000DB0033800023844A1380CFE7592802D137
:100DA00020235B42F5E75A2801D1814BF1E7302837
:100DB00001D17A4BEDE70300313BDBB2082B06D8BB
:100DC00030387840C0B2FFF7F5FA0134B6E70300D7
:100DD000413BDBB2152B01D83738F2E75B28ACD0AA
:100DE0005D28EED10027A9E7654E35682B787F2B6B
:100DF00000D852E7634C6A78A91C200004F0F2F98D
:100E000068786C490522001904F0ECF95F4806F097
:100E10001BFD574D2100280006F092FB002800D151
:100E20003BE700235A4A210013605A4A2800136006
:100E3000462206F0B7FBE17CA37C227D0902194320
:100E4000120411430122637D1B060B4301339343BC
:100E5000594A1360E17DA77D227E09020F431204E7
:100E60003A43677E55493F063A43002F06DB0A6046
:100E7000462805D03E4806F0D7FC0EE75242F6E77A
:100E8000FF22083BD2009342F4D80B68083B934200
:100E9000F0D8637821784A4A1B020B439342E9D188
:100EA000E178A37822790902194363791204114386
:100EB0001B060B43434A643B9342DBD8E37AA27A96
:100EC0001B02217B1A43637B090411431B06194350
:100ED0000A003D4B363A9A42CCD8E37EA27E1B02F2
:100EE0001343012BC6D1637F227F1B021343102BB8
:100EF000C0D1280006F03EFD33681A780023520660
:100F000000D57833244A13600323F1E62A4E326871
:100F1000A02A00DDA022A0211F4C49002368144D07
:100F200059432A4BA0314900C9185200280006F045
:100F300039FBA02221680123100004F003FE316870
:100F4000A02906DD2B6AA03949002800C91806F03F
:100F500011FD236819495A1C0B682260013B0B6084
:100F6000EF2A87DC002B00DDC4E683E78D990220A1
:100F70001C6C02202C1300208C1300207D7002209A
:100F8000186C022090990220E48700109C9802209F
:100F90009C6C0220986C02204C6C02201084FFFF95
:100FA00072700220181300206C7002201C130020A5
:100FB00000F8FFFFE9870010506C0220486C022007
:100FC000424D0000DC4A4C009A07000094130020B8
:100FD00073B515008222104B0E0004000093782197
:100FE00014231E20520005F0EBF980220B4B520017
:100FF00000937A211023202005F0A0F9310020026F
:1010000002F0A6FF102302007A212020009505F0AF
:1010100095F904F0FFFD73BDFFFF00001084000090
:1010200037B50400002005F0FDF9200007F08FF827
:10103000050005F05FF914210023491B5822200008
:10104000C9000093024B05F025FB04F0E3FD37BD1A
:10105000E0FF0000F8B504001D48FFF7E1FF002C99
:101060000BD080231B02E018032808D9194BC318A2
:101070001B68013303D10438F6E71748F4E7174B30
:10108000174FC018C40BE403250080235B019D4269
:1010900014D3FC222100601B1202FFF799FF80236A
:1010A0002E005B029D4200DD1E00F0231B06F81897
:1010B000310007F085FBBF19AD1BE6E7FC222100DC
:1010C00020001202FFF784FF322001F025FBF8BD5B
:1010D000EE870010FC0F031000F01C00FC7F0000E6
:1010E0000010031037B50400134806F09DFB0020E4
:1010F00005F098F9200007F02AF8050005F0E8F857
:101100001421F823491B1B0268222000C900009308
:101110000A4B05F079FA04F07DFD07F097F907F026
:1011200073F97F28FBD0FFF797FDFFF7FDF9FFF775
:10113000EBFA04F06FFD37BD1C6C0220E0FF0000ED
:10114000F7B50024002005F06DF9C14FC14B380000
:101150001C6006F0EBF9FFF7CFFCFFF7E5F9BE489E
:10116000FFF722FD01F05AFBBC4BBD4DC018BD4B33
:10117000186001232B7006F0CBF8A0420DD0BA4BBB
:101180001C60FFF783F9B948FFF70EFD2C70FFF7DD
:1011900045FBFFF7C1FCFFF7B7FA04F03BFD01F098
:1011A0003DFBB04AB2491368C31A8B420FDD106091
:1011B00006F0AEF8AA4C2378002819D1002B06D1EE
:1011C000FFF74AFDFFF798FCA348FFF7EDFC07F097
:1011D0001BF97F2800D198E10728F8D807F0C8FA52
:1011E0004A0055002F001800F7FF98016B006601B8
:1011F000002BECD0FFF730FD9C48FFF7D5FC002317
:101200002370FFF70BFBFFF787FCFFF77DFADEE7A4
:10121000984A994912680B68013A9A42D7DD5A1CDC
:101220000B3B0A60DA43D21713408F4A1168994288
:1012300000DA1360FFF768FAFFF7E0F8C7E78D4BB5
:101240008D481B6801685D1E8D42C0DD0D3BDA4391
:10125000854CD21713402268934205DD0C320C25D1
:10126000934203DB22604D190560E3E7D21AAD1A01
:101270002360F8E7804A1368002BA8DD013B136068
:10128000794A11688B42D5DAD3E77B490A68002A8C
:101290009DDD75480368002B0BDD0C2464421C198E
:1012A00004D40C230460D31A0B60C3E70024046049
:1012B000F9E70023F8E7704B1B689C466D4B1B68F1
:1012C0009C4584D263460A2410225C436B4BE35C4A
:1012D0001A400192694A1519102213424CD0684CE9
:1012E0006E782268022E2FD1AB782E2B2CD1EB7882
:1012F0002E2B29D11500002362482E00013D415DAF
:101300002F291FD1002B00D026605E49514B921B24
:101310005D4871181A6003F065FF10225B4B1A706C
:10132000012E00DD25600023226856498B544E4A69
:101330001360FFF7C3FB01F071FA484BC018494B2B
:10134000186044E70123D8E7531C9919F029EADC17
:10135000012A03D02F2123604A4B995463460A2166
:10136000594325684748454B023128183200C918AF
:1013700003F038FF7519D5E7380006F055FA3F4BF2
:10138000434E6D78A11CC9182A00300003F02AFFD3
:1013900040490522A81903F025FF3F4C2000FFF724
:1013A0003FFE384806F050FA3100380006F0C8F821
:1013B000002803D13948FFF795FE08E7C425BE6928
:1013C000AD023000FFF746FE2000FFF729FE344B48
:1013D000019C00960193C0239B009C421CDC009B57
:1013E000002B19DD019B38000133FF3319000193F5
:1013F00006F0C0FA8022264938006118520006F033
:10140000D1F8284B01341860009BFF34013BFF3BAF
:101410000093E0E70024DEE7FC22234B3100E818CC
:10142000D200FFF7D5FD28002200194907F0B0F9D6
:10143000009B2D19002B03DD1A4B1B68002BE9DCE8
:10144000380006F0F1F9FEF7D9FF0120FEBDC046D5
:101450001C6C0220D86B0220F9870010807BE1FF12
:101460008E990220D46B022090130020088800106F
:1014700040420F008C1300202C1300207D700220AE
:10148000146C02209C980220939802209B980220C2
:1014900090990220198800101E88001029880010D9
:1014A00000FFFFFF9C6C022000F0FCFF194D2A6832
:1014B000012A00DC8BE61400002317492600013CBA
:1014C000095D2F291FD1002B00D02E601249134B2C
:1014D000921B134871181A6003F084FE1022114BFE
:1014E0001A70012E00DD2C6000232A680A498B54F3
:1014F0000D4A1360FFF7E2FA01F090F90B4BC018A8
:101500000B4B186098E60123D7E7FFF7AFFB44E6E3
:1015100000209BE7146C02209C980220D86B0220CC
:10152000939802209B98022090130020807BE1FF7B
:10153000D46B022070B5002090B004F073FF06F069
:1015400085FF404B404A14211A6010223F4B03A8EC
:101550001A6080223E4BD205009201933D4A02F070
:10156000A1FC0025F0230193703B00930023F0269B
:101570001A003949394805F0F1F82A24F60021000B
:1015800013234D22192000961A3404F0D7FEE02CC4
:10159000F5D1152301933333EE22314931480093BD
:1015A0008C3305F0DBF81E22A8212F4B2F4804F0C6
:1015B000CDFF03A807F01EF8C83C211AC90049084E
:1015C0002B4B5022803103A8009505F01DF804F044
:1015D00065FC03F087FD274A009001911E2108A8B1
:1015E00002F060FC08A807F005F8211AC9004908B4
:1015F0001F4B6922803108A8009505F005F806F018
:1016000039FE03F06FFD1C4A009001911E2108A8CD
:1016100002F048FC08A806F0EDFF211AC9004908AD
:101620008222134B803108A8009504F0EDFF04F0EE
:10163000F1FA142001F070F806F0E6FE7F2891D050
:1016400010B070BDDC0600209CA10010D406002064
:10165000B81EED3F3B8800109CB10010348900108B
:10166000BCB10010BCB3001002EE00004C880010AA
:10167000FFFF0000548800106988001030B5714CDD
:101680000020A54404F0CEFE06F0E0FEF023019316
:101690005033009300236C491A006C4805F05EF843
:1016A000152301933333EE22009369498C33694843
:1016B00005F054F8684B694A32241A6008224B2519
:1016C000674B1A6003A806F003FF039803F0AAFC17
:1016D000EA21890503F09FFC03F004FD614A0090B4
:1016E0000191210010A802F0DDFB059803F09AFC9F
:1016F000EA21890503F08FFC03F0F4FC5A4A0090BC
:10170000019121001DA802F0CDFB06A806F0F4FE11
:10171000069803F087FCEA21890503F07CFCEA21A6
:10172000890503F078FC03F0DDFC504A009001913C
:1017300021002AA802F0B6FB079B4D4A210037A8DA
:1017400002F0B0FB089803F06DFCEA21890503F074
:1017500062FC03F0C7FC474A00900191210044A8B5
:1017600002F0A0FB09A806F0D9FE4349099802F04F
:1017700017FC21000300414A51A802F093FB21000D
:101780000A9B3F4A5EA802F08DFB21003D4A0BAB4D
:101790006BA802F087FB3D226B469B1821001B784B
:1017A000394A78A802F07EFB3E226B469B18210046
:1017B0001B78364A85A802F075FB0C222900344BB1
:1017C00051A804F07FFE20222900314B5EA804F0CE
:1017D00079FE342229002E4B78A804F073FE5C2297
:1017E00029002B4B2AA804F06DFE70222900284BFB
:1017F00037A804F067FE84222900254B44A804F092
:1018000061FEAC222900224B6BA804F05BFEC022D3
:1018100029001F4B10A804F055FED42229001C4BB0
:101820001DA804F04FFE04F0F5F9142000F074FF39
:1018300006F0EAFD7F2800D144E793239B009D44F6
:1018400030BDC046B4FDFFFF70B6001070B8001088
:10185000ACD40010ACD60010DC0600209C9900101F
:10186000D4060020798800108C880010A088001011
:10187000B5880010C788001040420F00D8880010BB
:10188000ED880010FF8800100D89001021890010DC
:10189000FFFF000070B5012406F0D8FD25000226E8
:1018A000012C0BD1FFF746FE2C00052809D001388A
:1018B000C0B20128F4D8012CF4D13400FFF7DEFEC9
:1018C000F3E770BD01210C4A13688B4313600123B9
:1018D0000A4A5B42D367C022094952008B50094B28
:1018E000094A0A491A600A4B1A680A4B8B601B683E
:1018F00083F308881047FEE710E000E004E100E011
:1019000000E100E000E00040BFEDFBFF00ED00E083
:10191000041003100010031037B506F0ABFC194992
:1019200003F05FFB184903F062FB184903F073FBF7
:1019300003F0A0FB041E17DAF82500242D0214235F
:1019400001930A330093062200231149114804F041
:1019500005FF0C2C00DD0C240C210095062308004B
:10196000A21C04F0EBFC37BDF025431EED00032B59
:1019700004D9431F032BE2D8074DE0E7F8252D02D9
:10198000DDE7C04666664640CCCC8C3F0000404157
:1019900030E8001048DF0010C0FB0000F0B50C007C
:1019A0001E4F87B0039004920593112264230B31DC
:1019B0000130009704F0C2FC25002100039E3B008B
:1019C0000936092230000D316F3504F053FD3B001C
:1019D00009222900300004F04DFD049B002B1ADD84
:1019E0001A001823013A53436A460398978AED1A5E
:1019F0000D2229000330009704F0A0FC3B000722D1
:101A00003000691E04F036FD21003B000722300043
:101A10006E3104F02FFD07B0F0BDC046FFFF00009F
:101A2000F0B5012091B006F049FC08A804F082FA54
:101A300006AB08A85C7A04F07DFA06AB1B7A012697
:101A40000493764B3700DA690022DA6123005A1ECC
:101A50009341DBB2002205930023350002920393E9
:101A60000692079300F0DAFE0B00079902009942F4
:101A700056D802D10699914252D800216848801860
:101A80005941069007910399994203D861D102996F
:101A900091425ED904F01CFCF02301935033009373
:101AA000002360491A00604804F058FE1423059A88
:101AB00001930093002A51D028225C495C480F3BD7
:101AC000FF3204F04BFEFFF727FF002F14D09220C7
:101AD00022002821574B4000FFF760FF122392227B
:101AE00055495648019300935200933304F036FE53
:101AF0005349544806F080FA002E0ED028210A20BF
:101B00004C4B049AFFF74AFF12230A2201930093D9
:101B10004D494E48933304F021FE04F07BF80EE06B
:101B20000399994209D802D10299914205D8002F10
:101B300000D03D00002E0ED13700002DAAD106F0B6
:101B400063FC072862D806F02BFE0F5440285A5F2A
:101B500067630125EBE7002637009BE72822052372
:101B60003B493C48FF32ACE7042C00DC0134059BC8
:101B7000002B01D106F0E2FA00F050FE0023364AB5
:101B800000268018594102900391E0B206F066FAEF
:101B900001231F001D00059364E7002C02D0013CC7
:101BA000002C03D1002406F033FA059400F036FE31
:101BB0000023294A00268018594102900391E0B27F
:101BC00006F04CFA012701254CE7049B042B01DCAD
:101BD0000133049300F022FE00231F4A01268018DF
:101BE00059416B4602900391187C04F05DF8002780
:101BF000E9E7049B5A1E9341049AD31AE9E7FFF7D9
:101C000049FE06F023FCDEE704F07AF9002529E717
:101C1000FFF796FA0028F4D0FFF754FE0080054045
:101C200080C3C90148DD001088FF001030E00010BB
:101C30005CD900102F63000030E400105CDB001062
:101C40005515000030EA001030E2001080DA001074
:101C500030E6001054DC0010C0C62D00084B820096
:101C6000D218402310B51468C0006340C02423403C
:101C70008024640122431360024BC018416010BDF0
:101C800004C0014000400140094B8000C0184B1EB9
:101C90009941531E9A41C90003689200114359406B
:101CA00080230C225B011140184301607047C0463D
:101CB00004C00140064BC000C01803680902594027
:101CC000C0239B00194080235B01184301607047CB
:101CD00004400140054B8000C018402280230029A9
:101CE00000D1C0239B0118430260704704C001402B
:101CF0000123D022834010B512069362052193611F
:101D0000FFF7ACFF10BD10B51F21FFF7A7FF10BDF7
:101D1000024B18688007C00F7047C04600C00640DD
:101D20008023DB051868000F70470000EFF3108078
:101D300072B6034A1368002BFCD0BFF35F8F704765
:101D40002C0100D0BFF35F8F0022024B1A6080F39A
:101D5000108870472C0100D00722CB08C35C0120FB
:101D6000114088401840431E9841C0B27047F8B5F2
:101D700005000C001700FFF7D9FF2100060028001E
:101D8000FFF7EAFF002803D02100380001F0C4F873
:101D900007210123E2080C40A340A95C30000B435B
:101DA000AB54FFF7CFFFF8BDF7B5050014001F00D7
:101DB0000191FFF7BBFF0600BC4202D90124644237
:101DC0000DE021002800FFF7C7FF002812D10722ED
:101DD000012322409340E1086A5C13436B543000B6
:101DE000FFF7B0FF002C07DA019B002B04D0089806
:101DF00001F092F80134DFE72000FEBD70B5050068
:101E00000C00FFF793FF07210122E6080C40A240D7
:101E1000AB5D9343AB55FFF795FF70BD0021044BBD
:101E2000044ABFF35F8F02C39342FAD17047C046A2
:101E3000000100D0800100D0044A1078431CDBB2BE
:101E4000172B01D8137070471023FBE730060020D2
:101E5000064B10B5C31801009B00BFF35F8F002233
:101E600003481A60FFF7CAFF10BDC04640000034A7
:101E7000086E0220074B10309B688000C150BFF3F2
:101E80005F8FBFF35F8F0021034B196082F31088CF
:101E90007047C04600ED00E0240100D001228240DE
:101EA000034B1B6813405A1E9341D8B27047C0467B
:101EB00000E100E0002904D0034B1860034B1860D8
:101EC0007047034BFBE7C04680E200E000E100E022
:101ED00080E100E00123834010B51800FFF7EAFF1E
:101EE00010BD0000024B10309B688000C058704746
:101EF00000ED00E070B504000D00EFF3108672B63F
:101F00000A4A1368002BFCD0BFF35F8F2000FFF755
:101F1000E9FF074B984203D0A84201D001F014F822
:101F2000320029002000FFF7A5FF70BD240100D07A
:101F3000CD010010F0B585B005000191EFF31083DD
:101F400072B6494A02931368002BFCD0BFF35F8F2F
:101F50002F00464B10379B68BA00D458444B9C4224
:101F600068D0019A944200D17CE0424BE31A2F2BB7
:101F700060D82800FFF792FF002103902800FFF7A8
:101F8000A9FFBFF35F8FEFF30586002E03D0B742A2
:101F900001D000F0D9FF012322009A431300002250
:101FA000344F98680621844601985956844514D1C7
:101FB000002919DA002E48D1002A44D0FF2191715E
:101FC0002D4991802D492B480A789A712C4A1B1A69
:101FD0005B415A43120D0A7028E0002926DB0C22CF
:101FE00051431A007B18DCE70C204843214A16189D
:101FF000B7689F60F779DF710627F7579F71B77948
:102000007F2F1ED8B688D21A760536158019121879
:10201000E0201205520D000202439A800C224A432E
:10202000144B9B18154A1078117098712800039969
:10203000FFF750FF21002800029AFFF71BFF05B0B1
:10204000F0BD104AE9E70A4CBCE70F4A0F49D21A23
:10205000083A5002400D014399800D4952080A4345
:10206000DA80E3E71C00E5E7240100D000ED00E0A2
:10207000CD0100103406002001BDFFFFF79D0220B6
:10208000AAAA000001BD00006E06002000F0FFFFBC
:1020900000F8FFFF0123F7B5EFF305810343019338
:1020A000EFF3108772B61D4B1B68002BFBD0BFF3FC
:1020B0005F8F1B4A04001B4BA41A644163431B0D32
:1020C0005BB29C46184B89009B6814005B581D004E
:1020D0002E00019D0023AE4214D1134B134A9B687E
:1020E0005A50134B1A78827162461A70BFF35F8F91
:1020F00000230A4A136087F31088F7BD01330C34BC
:10210000042BEED0062161566145F7D10C214B43DB
:10211000D218FF239371074B9380E2E7240100D08C
:1021200034060020AAAA000000ED00E0CD01001056
:10213000F79D022001BDFFFF054B064A1360064ACA
:10214000136053609360D360136153619361704770
:102150008080808000E400E004E400E0024BC918C5
:10216000890001607047C0464000003410B504008B
:10217000FFF762FE01002000FFF7F0FFFF2323714D
:10218000BFF35F8F10BD10B50400FFF755FE0100CF
:102190002000FFF7E3FFFF23A380BFF35F8F10BD95
:1021A00030B5084D01226C6A0023A14206D8AD6A01
:1021B0001300854202D20B1B591E8B41134018009D
:1021C00030BDC0460040054083680A4810B5091874
:1021D00012181201090159189B185C684A680120FD
:1021E000944205D803D11A680B689A4200D800209F
:1021F000C0B210BDFFFFFF0F70B50C000500080056
:1022000000F0CCFB2000094900F020FBFFF714FE92
:10221000074B2C75C018D0231B061B6880006B75FC
:10222000044BA4006860E55070BDC0465523001003
:1022300040000034446E02200A4B1868EFF310820D
:1022400072B601680029FCD0BFF35F8F1B68BFF333
:102250005F8F0021196082F3108840BF00200021A9
:102260007047C04658700220032330B51C0053430A
:102270004C43033BC318033C9970015D05190029C9
:1022800001D12A7030BD5970FBE70000F0B585B070
:1022900002930CAB1C780DAB1B780700056801920C
:1022A0000393002C10D1AC7B002C47D00323634355
:1022B0002A68033BD3185A78AA73002A00D1EA731C
:1022C00000229A705A701A70214BBA68E3181B01E9
:1022D000D318019A1A60029A5A600A9A9A600B9A65
:1022E000DA60032363432A68033BD31800229A7001
:1022F0005A701A706E7B964228D022003100A8686E
:102300006B68984700281CD0220031002868FFF72E
:10231000ABFF6E73A64211D1387D019A029B00F08B
:10232000DFFA051E06D0039B002B03D1210038687D
:1023300000F0F8FB0E9B002B00D01D70200005B0B4
:10234000F0BD320021002868FFF78EFF2600E0E78D
:10235000FFFFFF0F0023F0B58FB00C935F4B82009F
:10236000D4580D9000F05AFA02000B006068EFF3A9
:10237000108172B6089101680029FCD0BFF35F8F0D
:1023800021688C46497B0791002900D171E05449AE
:1023900007984518A1682D014D192868696806003D
:1023A0000F00B61A9F41002F57DC01D1002E54D1E7
:1023B0000021604600F0ACFB2A686B680A920B9320
:1023C000E368079AAF689B18013B1B78ED680C9394
:1023D0001B020343002023616368BFF35F8F002269
:1023E0001A60089B83F31088974271D00C9B2900D8
:1023F0001802079B1843B847089009916268EFF3E9
:10240000108372B61E001368002BFCD0BFF35F8FE1
:10241000099B002B35DA2369002B40D00A9A0B9BCD
:1024200008980999121A8B41002B02DA01222D4BD0
:102430005242002104910131039107992000029139
:1024400001950097FFF722FF002263682261BFF326
:102450005F8F1A6086F3108884E702000B000D98E6
:1024600000F03EFA0025002200232F000A920B9371
:10247000B2E700220023079D0A920B932F00280049
:10248000AAE7089B099A134309D02369002B06D0B9
:1024900000F0C4F9089A099B12184B41C4E723685D
:1024A000D97B002906D003224A4319688A18079964
:1024B000033A51709A7B002A01D1079A9A73079ABE
:1024C000DA731300E168013BCA5C0132CA54BBE70E
:1024D000002800D046E70FB0F0BDC046446E022091
:1024E000FFFFFF0FFFFFFF7F10B50B4C6368002B52
:1024F0000CD110212300094A206800F0B5FA03200E
:1025000000F080F903212000FFF776FE0A2104483D
:10251000FFF724FE10BDC0467C060020C921001034
:1025200058700220F0B58DB01F0014AB1B78002549
:1025300009931F230400160004AA9B181D706268EB
:10254000EFF3108372B606931368002BFCD0BFF331
:102550005F8F1F2304AA9B180493139B32000193DF
:10256000129B2000009303953B000295FFF78EFE1F
:1025700002000020824203D0E3689B18013B1878D8
:102580006168BFF35F8F069B0D6083F31088002A9C
:102590001CD004ABD97F00291BD1000210430DB021
:1025A000F0BD06900791002909DA069A079BB61A32
:1025B0009F41002FC3DA01260C4F7642BFE700F09F
:1025C0002DF9069E079F36184F41F2E70120404241
:1025D000E5E7099B002B06D0129B00201399984732
:1025E00003000B43DDD10020D9E7C046FFFFFF7F8A
:1025F000F8B504000B00081E29D06168EFF31085C0
:1026000072B60A68002AFCD0BFF35F8F2768D9B280
:10261000787BDAB2884207D0032656433868861999
:10262000033EB078002813D0E0681B0A8218013AF4
:102630001278DBB200209A4202D1380000F072FA20
:102640006368BFF35F8F00221A6085F31088F8BDBE
:1026500022699342F4D12061F2E70000F0B5060050
:102660000F0006246442E517A4197D4185B08D4210
:1026700002D803D1844201D90024002500F0CEF80D
:1026800022002B00121A8B41002B08DC01D1002AFA
:1026900005D13000390000F0CBF805B0F0BD0023C3
:1026A00002930193104B2200009310482B00FFF778
:1026B00039FF0028EDDB20002900FFF771FD00281D
:1026C000E7D10B4B1868EFF3108272B6016800294E
:1026D000FCD0BFF35F8F1B68BFF35F8F00211960D1
:1026E00082F3108820BFE6E7392200107C06002024
:1026F0005870022070B504000D0000F08FF800192A
:102700006941002902DA012002494042FFF7A6FF91
:1027100070BDC046FFFFFF7FFA2210B50023920074
:10272000002102F041FCFFF7E5FF10BD7FB5EFF39C
:10273000058305000C00002B05D028002100FFF7C1
:102740002FFD04B070BD084E02930193074B0200A9
:10275000009330000B00FFF7E5FE011EEDDD20BF0A
:102760003000FFF745FFE8E77C0600203922001023
:10277000F7B5EFF30583180001931038EFF31087D6
:1027800072B6194B1B68002BFBD0BFF35F8F01267D
:1027900031008140154B164D69631960154B1B784C
:1027A0001A00C24094466446002234420AD0124EB7
:1027B0006C6A8500AE59B4420FD3104A8B430D4961
:1027C000AA580B70BFF35F8F002307490B6087F394
:1027D00010889A4200D09047F7BD019B08499B00A2
:1027E0005B1819681960EDE7280100D03C700540BE
:1027F00000400540019E02205C700220CC6C02204B
:10280000D03F054010B50100024A0348FFF7AFFA78
:1028100010BDC0468B210110B69D0220034B596AA2
:102820000A00986A596A8A42FAD170470040054006
:10283000054B5A6A8A42FCD38A4202D19A6A824282
:1028400000D370475A6AF7E700400540F7B5040027
:102850000D00EFF3108372B61C4F00933B68002B02
:10286000FCD0BFF35F8FA300194E0193002D1BD046
:102870002000FFF737FB86420BD031002000FFF726
:1028800039FB01212000FFF725FB0123A340114A5A
:102890001360114B019A9D50BFF35F8F00233B6083
:1028A000009B83F31088F7BD0B4BA2009D500122C3
:1028B000A2400A4920000B7893430B703100FFF7C8
:1028C00039FB29002000FFF705FBE5E7280100D0D0
:1028D0007127001038600540CC6C0220019E022058
:1028E000F0B585B01E0004000192FFF797FF8E42FD
:1028F00003D847D1019B834244D9EFF3108372B6CA
:102900000393214B1B68002BFBD0BFF35F8F012586
:10291000A5401E4B1E4F1B7800932B43DBB2029346
:10292000029A1A4B1A70019A231D9B007D63DA519B
:10293000184AA3009E503B6A2B420AD10020BFF3E5
:102940005F8F0023104A1360039B83F3108805B048
:10295000F0BDFFF763FF8E42F0D802D1019B8342A6
:10296000ECD8029B009A01209342E8D01F2302007A
:102970001C40A240084B3D627D631A60034B009AE5
:102980001A70DCE70120E2E7280100D0019E022056
:10299000004005405C70022080E200E010B5EFF3DB
:1029A000108472B60A490B68002BFCD0BFF35F8F0E
:1029B00001238340074A0848136202789A43027051
:1029C000BFF35F8F00230B6084F3108810BDC046F7
:1029D000280100D000400540019E0220032330B5AD
:1029E0001C0053434C43033BC318033C9970015DE7
:1029F0000519002901D12A7030BD5970FBE770B567
:102A000006000C001500002912D0002A09D08068A9
:102A100073689847002806D02A0021003068FFF725
:102A2000DDFF200070BD220029003068FFF7D6FFCF
:102A30002C00F6E70122002330B5047B8273437338
:102A40000268C47303200133DDB2AC4205D8002311
:102A500060431218033A537030BD010059435118B6
:102A6000033901354D70EEE710B5017342608360A4
:102A7000FFF7E0FF10BD70B5040000291DD0056808
:102A8000032003004B43033BEB185A78002A14D071
:102A90000026504303382818457846705E702000A1
:102AA000FFF7ADFF290006002000FFF7E4FF31002B
:102AB00002002000FFF7A3FF0100080070BDF7B57A
:102AC00003273E004E430368033E0D00995D04005A
:102AD0000192FFF7D0FF019B002B0CD0E37B002B72
:102AE00004D05F432368DF19033F7D70A37B002B75
:102AF00000D1A573E5732268002805D003230021C7
:102B00004343D318033B9970002392195370FEBDC1
:102B100070B5457B0A0029000400FFF7D0FF607301
:102B2000280070BD70B50400081E07D0637B8B427F
:102B300005D101212000FFF7EBFF012070BD032626
:102B400033004B432568033BEB189A78101EF5D0F1
:102B50007243033AA818AA5C8A4211D15A780270CB
:102B6000002220009A705A700132FFF7A8FF617BA3
:102B700002002000FFF743FF6073DEE7002AEFD07A
:102B80007243033AA81842788A42F7D15A784270C1
:102B9000E6E70000F0B585B003920A9A05000F0041
:102BA00000209A4240D80C241A0E1B020292019374
:102BB0000A9A03000299019801F030FA6C43294BFC
:102BC0000600E4186368834200D260602B1FDBB20A
:102BD0000093C023009A9B012343012A26D8012F8A
:102BE00024D103221A60A3683B42FCD0039A2368D5
:102BF00052015A408021E02349011A40009B2143A1
:102C00000A60012B23D9802380229B0123431201D8
:102C10001A600198002332000299666001F0FEF903
:102C2000114BAD005851012005B0F0BD80221201BA
:102C30001A600D4BAA00D1580029D7D0586901F06D
:102C4000AFF9431C032058430338FDD2CEE70322DB
:102C500023687B4013400B600123BB40A2681342F2
:102C6000FCD0D0E7008000400C6E022073B50C2031
:102C700000F0CAF8FFF74CF800280AD000232C4ACD
:102C80002C489900013388500A2BFAD12A4B536201
:102C900073BD2A4DA86700F0BFF80122284B1A60C7
:102CA0006B6C012BFCD10322264B1A60AC6B012C00
:102CB000FCD102250526210000950623224A23483F
:102CC00000F054F833002100214A2248009600F019
:102CD0004DF8214B2900214D009300220420FFF7DD
:102CE00059FF2B002100002230000095FFF752FF12
:102CF0000022104C1100230000940720FFF74AFF28
:102D000000222300110000940820FFF743FF002257
:102D1000094B1100009309202300FFF73BFF00221D
:102D20002B00110000950620FFF734FFB0E7C046E6
:102D30000C6E0220006CDC021BB70000008000401B
:102D40003CB0004030B00040002F68590080024085
:102D5000008C864700C00240001BB7004059730733
:102D6000014B8000C05870470C6E0220F8B504007B
:102D7000204817001E000D0001F012F90100380074
:102D800001F00EF9069A3304120313432268002A55
:102D90000FDA3F2122680A40AA420AD1A26812052E
:102DA000120D824205D1EE21E268C9020A409A4220
:102DB0001BD0114A944219D0802252010F49104E63
:102DC0000A6010490A601700B1688F43FBD1C02226
:102DD000211D92010A4321212560A0601160216814
:102DE0000029FCDAE36008231360F8BD8022920119
:102DF000E4E7C046001BB70000C0024000E000400E
:102E000000C0004000F000408023024A9B000343C2
:102E1000D362704700800540AA22064B12011A6057
:102E20002F220549DA60054A11605A68002AFCDA47
:102E30007047C0460040024000B0FA000060024007
:102E4000234B244A70B51A60234E244B244D336023
:102E50001900AA689143FBD1224C234B9C4224D3F6
:102E6000FFF704FF214B3360AB68DB018033FBD1FC
:102E700040221F4B1F489A675A671A67DA661E4B33
:102E8000984215D31D4C1E4DA168C022280002F0A7
:102E9000A9F9A560FEF7C2FFFFF74EF9FFF724FB83
:102EA000184C194B9C420FD370BD08CC9847D4E7FF
:102EB000040003680834002B03D0FFF764F92000F6
:102EC000DDE7FFF753F9FAE708CC9847E9E7C04692
:102ED00000E00040BFCDFBFE00F00040FE7F3C0064
:102EE00000C00040300F0020400F0020FFFFFF0116
:102EF00000F00140200F0020300F002000ED00E026
:102F000000000020400F00204C0F002000BEFDE715
:102F100010B5FFF7FBFF00000FB407B5084802F03B
:102F200027FA049B002B07D005A91800019100F097
:102F3000CBFF044802F01CFA0120FFF7E7FFC04670
:102F4000AD210110BB21011010B50148FFF7E4FFCE
:102F5000BD2101109A4200D2885470477047F0B5E5
:102F600085B002930D9B0E00170001909B0722D0A5
:102F700003920B9D039A0B9B9818421B002D1CD1AA
:102F80000D9BC51B9B0727D405B0F0BD3100202049
:102F9000029B019CA04701350B9BFA1A0C9B52190E
:102FA0009D42F3D30B9A0C9900238A4200D88B1AC6
:102FB000DB190393DDE70B9DEEE70A9B013D585DAE
:102FC0003100029B019CA047D4E702003100202081
:102FD000029B019CA04701350C9B7819AB42F4D8A9
:102FE000D2E7F0B589B0070010A8067814980591CB
:102FF00006920E990F9A139C079383071ED40125FE
:103000000540002C07D0002D05D0002E02D10C2346
:10301000184200D0013C30239C4604E0202A05D011
:1030200063468B540132129B9342F7D830239C465F
:10303000002D03D0A24201D21F2A19D9C3063AD5C6
:1030400043051AD4002A18D0129B9A4201D0A242FA
:1030500013D1551E012A0FD0119B023A102B0FD00D
:103060002A00119B022B21D11F2A0ED862251BE0BA
:1030700063468B540132DBE72A00119B102BF0D101
:1030800083060ED478251F2A0ED903900192009151
:103090003800079B069A05990294FFF760FF09B074
:1030A000F0BD58251F2AF0D88D5401321F2AECD8C4
:1030B00030258D5401321F2AE7D82D25002E05D149
:1030C0002B25430702D40307DFD520258D54013279
:1030D000DBE7F0B597B00A921CAA0B9308CA0D0063
:1030E0001278219C09900C92002B01D1102294435C
:1030F000620501D5002B1FD06122A10600D5412217
:103100001E000027D2B20A3A0D9230001E9900F03C
:1031100047FF0D9ACBB29A188446D2B2092901D83A
:103120003033DAB2202006A90918CA551E9A7B1C32
:10313000964201D3834213D1209A019305921F9A9C
:103140000EAB04921E9A009303920C9A29000292ED
:103150000B9B0A9A09980694FFF743FF17B0F0BD3E
:103160001F006646D1E7F0B59BB00D9322AB1B78EC
:10317000209D0E932B00219C249F259E0A900B914D
:103180000C92234303D1289A10339A432892289B08
:103190005B0504D52A00002322439A422AD0289AAC
:1031A0006123920600D541230022DBB20A3B09923B
:1031B0000F933A0033002800210000F02FFF0F9BEF
:1031C000D2B2D318DBB29C4610901191092A02D8D2
:1031D0003032D3B29C4620200AAA12186046099BBE
:1031E000099901335054A64204D801D1AF4201D805
:1031F000202B13D1289A01930692279A12AB05929D
:10320000269A009304920E9A0D9B02920B990C9AA7
:103210000A980397FFF7E5FE1BB0F0BD109D119CC7
:103220000993C6E7F0B595B00E931A9B0F920A93D7
:103230001B9B0A9A0B930B9B0C900D91100019008D
:1032400001F077F9002811D10122D44B0A980B998B
:10325000524201F069F9002808D10122D04B0A98A6
:103260000B99524201F04AF9002813D01E9B0A9A8A
:1032700004931D9B0D9903931C9B0C9802930B9B2D
:10328000009201930F9A0E9B00F0BCF9020010000F
:1032900015B0F0BD002200230A980B9901F02EF919
:1032A000002800D165E18022120694460A9B06930D
:1032B0000B9B6344079380231E9ADB001A401192F4
:1032C0001E9A1A4201D106231C93069D079B069E57
:1032D000079F1D4300D151E15800B24B400DC0186B
:1032E00001F03AF9B04AB14B01F0C5F8B04AB14B20
:1032F00001F09AF8079BB04A1B031B0B1A4304000A
:103300000D0030001100AD4B002201F084F8AC4AF2
:10331000AC4B01F0B0F802000B002000290001F0D6
:1033200083F801F031F9099001F016F9A64AA74B8C
:1033300006000F0001F09FF80022A54B01F074F881
:1033400001F022F9A34AA44B39001090300001F09B
:1033500092F8060010980F0001F0FEF89F4AA04B6B
:1033600001F089F802000B003000390001F053F839
:1033700002000B0004000D0001F07DF822000600A1
:103380000F002B002000290001F04EF800221290BF
:103390001391944B3000390001F04FF80022924B0A
:1033A00001F042F802000B003000390001F045F84E
:1033B00000228E4B01F038F802000B00300039007B
:1033C00001F03BF80F008021060022002B000020B6
:1033D000C90501F020F802000B003000390001F0AF
:1033E00023F802000B001298139901F026F800222E
:1033F000714B01F019F87E4A109B944663440022F9
:103400001B0501F038F8069A079B06000F0001F033
:103410008BF800280AD0099B3000013B3900099342
:103420000022714B01F009F806000F00099B0524EA
:103430006333C62B00D8A2E01E9B1B0523D53300A7
:103440003B4311D0069807996A4A6B4B01F064F828
:10345000002800D197E0069807990022674B01F0F9
:103460004DF8002800D18EE01C9B099A934200DCA5
:1034700087E09D1A6B1E1C93802300241E9ADB009C
:103480001A431E9209941D9B00259C4200D21D1BCD
:1034900002231E9A1A4010921E9A1A4203D06342C7
:1034A00063415B421D40099B002B07D0069807999A
:1034B00032003B0000F0C1FF06900791002200237C
:1034C0000A980B9901F01AF8002809D0802000060C
:1034D000844606990A00079961440B0006920793F7
:1034E0001E9A474B0D99134004931C9B0C98029312
:1034F0000395069A079B009201930F9A0E9B00F08A
:1035000081F80200002C00D1C1E61E9B45209B06DD
:1035100000D420300E9B0D990C9D561CA847052306
:103520000593002303930A330293099B013CDB0FAD
:103530000193099B0D99DA179D1855400E9B320097
:103540000C9804940095FFF7C4FD109B0200002B1B
:1035500000D19CE60F9BC41A0F9B1A191D9BA34216
:1035600000D894E620200E9B0D990C9DA8470134AD
:10357000F2E70A980B99069007919CE609950424B6
:103580005AE7002377E71C9B002B00D17BE7119BB8
:103590005A1E93411C9AD31A1C9374E7FFFFEF7FC6
:1035A000FFFFEFFF01FCFFFFFB799F501344D33F68
:1035B000B3C8608B288AC63F0000F03F0000F83F88
:1035C00061436F63A787D23F71A379094F930A4084
:1035D0000000E03F1655B5BBB16B0240EF39FAFE73
:1035E000422EE63F00002C4000002440000018401E
:1035F000FF0300002D431CEBE2361A3F80842E416E
:10360000FFF7FFFFF0B59BB0209E219F09900A9124
:103610000B920C9332003B0030003900229C00F0EA
:1036200088FF002808D0249B0393239B0293032345
:103630000193B04B009324E0012230003900AE4BDF
:10364000524200F05BFF002807D0249B0393239B8A
:10365000029304230193A94BECE7012230003900C7
:10366000A74B524200F060FF002814D00423249A94
:103670001A420DD0A34A24990193039123990092F1
:1036800002910C9B0B9A0A990998FFF768FC1FE0BE
:1036900003239D4AEFE70022300039009B4B00F0E6
:1036A00043FF002807D1002230003900984B00F07A
:1036B00025FF00280ED0249B009601970493239B9E
:1036C0000B9A03930A990C9B09980294FFF7AAFDA1
:1036D0001BB0F0BD002200233000390000F00EFFC7
:1036E000002877D03B0032000020002100F093FE3C
:1036F000012306000F000D93249B5B056CD522006F
:10370000302112AB203A08940898251A092807D9C5
:10371000089819700138089001339042F4D120259F
:103720003900300000F030FF089B0790DA00794B39
:103730009B185C681B680E930F9400F00DFF02004D
:103740000B003000390000F066FE0E9A0F9B00F06F
:1037500092FE1090119100F03BFF040000F0F8FE83
:1037600002000B001098119900F055FE00226A4BE0
:103770001090119100F0D8FE00282FD001342000C5
:1037800000F0E6FE02000B000E980F9900F0BCFE60
:10379000002803D00024079B01330793089B002BCC
:1037A0002AD00A26202D47D10323249A1340012B27
:1037B00000D08BE0239B002B00D187E00D9B002BDA
:1037C00002D10C331A4202D0239B013B23933022B7
:1037D00012AB6FE00D908FE7062490E7002210985F
:1037E00011994D4B00F08AFE0028D7D1002C01D052
:1037F000E307D3D50134D1E7079800F0ADFE02000E
:103800000B003000390000F006FE0022424B06009B
:103810000F0000F073FE00280CD1002230003900A8
:103820003D4B00F081FE002804D10123079A13408C
:10383000D31807930A2438E0089B0CAA013B08938D
:10384000172331009B1820000135EF1800F0A8FB6A
:10385000303139702000310000F0A2FB092C0CD867
:103860003020089B12A95B19202D9DD06A1C9D4217
:1038700005D12E234B551500DCE7040092E748558F
:103880001500F1E717230CAA9B18079821000135B2
:10389000EE1800F05DFB303107983170210000F028
:1038A00057FB0790002800D17EE7202DEAD17BE767
:1038B000EA5401352399A94208D9202DF8D1249B37
:1038C00001950393239B029312ABB3E6202DF6D010
:1038D0000D9A12AB002A03D02D225A550135EEE77E
:1038E000249A520701D52B22F7E7249A1207E6D52E
:1038F0002022F2E7D2210110FFFFEFFFD6210110B5
:10390000FFFFEF7FCD210110C921011065CDCD4111
:1039100065CDCDC1E02101100000E03F10B50028C9
:1039200001D001F00BFD10BDF0B59BB015000F9359
:103930008C4A8D4B209F0D900E911A60002901D169
:103940008A4B0D9300260BE00F9B01330F93252824
:1039500016D03200741C2B000D9E0E99B047260025
:103960000F9B18780028EFD13200AE4200D36A1EB8
:103970002B0000200E990D9CA04730001BB0F0BD1D
:1039800000230120082405E02D2A16D0302A0CD16E
:1039900003430F910F9A0F99127801312B2A0FD000
:1039A000F2D8202A0ED0232A0ED010003038092851
:1039B0002CD800220A240B920EE002221343E8E7DF
:1039C0000422FBE72343E4E71022F7E70B9A0F906A
:1039D0006243303A8A180B920F9A1178501C0A00F1
:1039E000303A092AF2D900200F9A0C9011782E292A
:1039F00028D18021C9000B430F9901324978080072
:103A0000303809283CD80A218C4615E000200B905C
:103A10002A2AE8D104CF0B92824204DA022213430D
:103A20000B9A52420B920F91DDE760460C9A42438B
:103A3000303A8A180C9222001178541C0800303851
:103A40000928F2D91078511C6C282CD024D8682869
:103A500031D06A2837D011000C784A1C0F92782C8C
:103A600004D8572C32D8452C5CD056D8731C320061
:103A700020000B930E992B000D9CA0470B9E6FE727
:103A80002A29DFD104CF0C92D2430C99D2171140CE
:103A90000F9A0C910232D5E7742801D07A28DAD136
:103AA000802252000BE050786C28F9D1C0218900A7
:103AB0000B43911CD0E75078682802D08022134332
:103AC000CAE7C021F4E780229200F8E720005838C6
:103AD0002028CBD804F04CFE4C00CAFFCAFFCAFF16
:103AE000CAFFCAFFCAFFCAFFCAFFCAFF4C00FB00D9
:103AF0004C002600E8002600CAFF4C00CAFFCAFF9F
:103B0000CAFFCAFFCAFF4C00B601CAFFCAFF430181
:103B1000CAFF4C00CAFFCAFF4C00462C00D1C1E0CE
:103B2000472CA3D1202221009143472904D1802290
:103B30001201134302229443452C01D12022134346
:103B4000072204930B9B073703930C9B9743029325
:103B50000CCF0E99009201930D982B003200FFF7C5
:103B600061FBB2E029390010406E02205D2F001089
:103B7000782C47D0582C00D178E16F2C00D179E116
:103B8000622C00D178E110229343063A692C03D0CD
:103B9000642C01D00C218B43590501D501218B43A5
:103BA000802189001940692C01D0642C46D100295C
:103BB0002AD0072107378F433C0003CF08930B9B84
:103BC000049207930C9B0834069300230593CB0FB4
:103BD0000293CB171193109343401493119B4B40C6
:103BE0001593149A159B10981199121A8B410092F3
:103BF00001930E992B0032000D98FFF7B4FA0600DE
:103C00002700ADE61022C5E73C1DD9050DD5396862
:103C100005930B9B029204930C9B0393CB0F019390
:103C2000CB17C9185940009124E03968580601D5CE
:103C3000C9B2EDE71806EBD509B2E9E700290DD0C6
:103C400008930B9B072107930C9BFC1D06930023F5
:103C50008C430492059302930CCCC8E73C1DD80515
:103C60000FD505930B9B029204930C9B0191039338
:103C70003B6800932B0032000E990D98FFF729FA4C
:103C8000BDE73968580609D5C9B205930B9B029266
:103C900004930C9B039300230193C4E71806F4D507
:103CA00089B2F2E720221343072204930B9B0737C4
:103CB00003930C9B974302930CCF0E9900920193B0
:103CC0000D982B003200FFF79DFC060048E602220B
:103CD0001A40129202220124134218D1320005E048
:103CE0002B0020200E990D9CA0470C9A0B99531C79
:103CF0000C939B1B8B42F3D30023994201D00B0002
:103D0000013BF6180B9B0224002B00D05C1C01CF5A
:103D1000731C32000C930E992B000D9EC0B2B0475D
:103D2000129B002B19D00C9A12940AE0531C139387
:103D300020202B000E990D9EB047129B139A013341
:103D400012930B9B12999942F0D30B9A0023A24233
:103D500000D3131B0C9AD3180C930C9E00E6390069
:103D600004C913920C9A1691002A01D101225242E1
:103D700013990C008A182178002901D0944214D19B
:103D8000139A1900A41A8022D200114017911342ED
:103D900003D00C9A944200D9140002221A401892BF
:103DA0000222134217D1320009E00134E3E7531C29
:103DB000129320202B000E990D9FB847129AA31B37
:103DC0000B99D3188B42F2D30023A14200D30B1BD3
:103DD0000134F6181C1912960AE00C93129B129AE1
:103DE000013319930E992B000D9FB847199B12931D
:103DF000139B129A9B1B985C002807D0179B002BE3
:103E0000ECD00C9B0C9A013B002AE6D1189B002BAE
:103E100015D0129A06E0561C2B0020200E990D9FFB
:103E2000B8473200129B0B99E31A9B189942F2D8BB
:103E30000023A14200D30B1B129AD3181293169F92
:103E4000129E8DE5212213430593082304930C9BB6
:103E500032000393102302930023019308CF0E999D
:103E600000930D982B00FFF734F92EE7202213431F
:103E7000103A8FE608228DE602228BE60EB401226C
:103E800010B585B007AC08CC01000094524204483C
:103E90000394FFF749FD05B010BC08BC03B01847F8
:103EA000552F00100CB41FB506AC08CC0A000094C6
:103EB000010004480394FFF737FD04B010BC08BCB0
:103EC00002B01847552F00101FB5094B1C68002C75
:103ED00009D00122030000910648524203A9A047DD
:103EE000012004B010BD01F043FA2000F9E7C046FC
:103EF000406E02201D39001001480421014B184773
:103F0000B0060020293F0010142310B501001888C6
:103F100004331B88984710BD162310B5010018887C
:103F200002331B88984710BDF8B50E000400002727
:103F30000125B74201D12800F8BD2068FFF7E4FF52
:103F400001C4431E9841404205400137F1E700009B
:103F5000124A936F9B0815D29066D166002905D04E
:103F6000FFE7FFE7FFE7516F106F704704B580214F
:103F70000906C2175140002800D0C84304F0E8FBEE
:103F8000002104BDF0B5146E556E576F166FFFF724
:103F9000E3FF1466556657671667F0BD000000D052
:103FA000114A936F9B0813D210665166002905D001
:103FB000FFE7FFE7FFE7516F106F704704B5002878
:103FC00001D00020C04304F0C3FB002104BDC04663
:103FD000F0B5146E556E576F166FFFF7E5FF146658
:103FE000556657671667F0BD000000D094464A4AF0
:103FF000926F9208624601D228E0C046F0B5464E64
:10400000346E756E776F366F00F020F89446424A32
:1040100014665566576716676246F0BD94463E4A79
:10402000926F9208624601D254E0C046F0B53A4E13
:10403000346E756E776F366F00F04CF89446364AE2
:1040400014665566576716676246F0BD002B24DB81
:1040500011D000293EDA00B5C943404200D10131F8
:1040600000F038F8C943404200D10131DB435242ED
:1040700000D1013300BD002AEBD1002801D1002975
:1040800005D00020C90FC90701D1C043410800B5C0
:1040900004F03EFB0022002300BD00B500290ADB2E
:1040A000DB43524200D1013300F014F8C9434042CF
:1040B00000D1013100BDC943404200D10131DB4391
:1040C000524200D1013300F005F8DB43524200D1E7
:1040D000013300BD002923D1002B18D1002A0CD0B8
:1040E000BC460D4F38667A6600210023FFE7FFE7E4
:1040F000FFE77A6F386F67467047002801D007489E
:10410000010000B504F004FB0022002300BD020002
:104110000B00002000217047000000D0FFFFFFFFD0
:10412000002B00D0BFE0130C28D1002AE7D080B4C8
:10413000114F39667A66FFE7FFE730B4040C7B6FF6
:10414000396F1B0423433B667A66FFE7FFE7FFE70F
:10415000C04684B27B6F3D6F1B0423433B667A6687
:10416000FFE7FFE7C04600232C042D0C7A6F386F61
:1041700000196941B0BC7047000000D0F0B594460A
:104180000025140E01D112020835140F01D11201BD
:104190000435940F01D192000235D40F01D15200A1
:1041A0000135D40B0134254F7C66254C3C660E0C42
:1041B00093B2FFE7FFE7FFE73C6F6643360C7703F8
:1041C000BE467343DF0B5B04C01AB941130C734343
:1041D000DB18C91ACE086643360CB64493B2734353
:1041E0001F0F1B01C01AB941130C73431F0B1B0592
:1041F000C01AB941860D8F023E436643360C092D25
:1042000024DB520A7243801A7703460A6643360C4F
:1042100016235B1BDE40DF40BF1964466643821BEA
:104220007046043506330100D940A840C01900D3B8
:104230000131A24206D20023F0BD0000000000D0F0
:10424000FFFFFFFF121B0130F3D3F1E709277F1BAC
:10425000FE406446A2B27243801A00D20139220C99
:104260007243130C1204821A99410B0070460435F4
:1042700013370100F940A840801900D30131002B09
:1042800002D1A2420AD2F0BD013000D30131121B8B
:10429000FAD2013BF8D1A24200D2F0BD013000D3E6
:1042A0000131121BF7E7F0B51C0C00D080E00CB414
:1042B00000251C0A04D11B02160E334312020835D6
:1042C0001C0B04D11B01160F3343120104359C0B48
:1042D00004D19B00960F334392000235DC0B02D1D0
:1042E00092185B4101351C00971864410134464F18
:1042F0007C66464C3C660E0CFFE7FFE7FFE7C046D6
:104300003C6F6643360C7703BE4697B27743C01BBB
:1043100000D20139C01B00D201399FB27743C91BBB
:10432000C91B170C77437E04FF0B801BB941CE08D5
:104330006643360C0C2D33DBB644120B1F053A4393
:104340001B0B97B27743C01B00D201399FB2774352
:10435000C91B170C77433E043F0C801BB941860DE7
:104360008F023E43664329277F1BFE400C3D774664
:10437000AF40BF1930BCA2B2ABB272437343801AD4
:104380009941220C7243130C1204801A99410200C5
:104390000B000137001BA941F9D2781E0021F0BDA6
:1043A0000C277F1BFE4077467F0BAF40FF19E0E7ED
:1043B00000245D1C07D0144F7D663966FFE7FFE7D8
:1043C000FFE7FFE73C6F95B29EB265436643401B33
:1043D000B141150C1E0C6543664336042F0C3E4359
:1043E0002D04401BB141994204D202000B00200071
:1043F0000021F0BD01D19042F7D3801A99410134D8
:104400009942F2D3F6E70000000000D0FFFFFFFF63
:1044100048404140484018B41B4B5B68FC46019340
:1044200008BD04DFA346001018B4174B1B68FC46F8
:10443000019308BD00DFAD4600109446134A926F09
:10444000920809D2624618B40F4BDB68FC46019310
:1044500008BD0CDF654900100C4AF0B5146E556EAE
:10446000576F166F6246FFF7EEFF084A14665566EF
:1044700057671667F0BD18B4034B9B68FC46019361
:1044800008BD08DF09480010546E0220000000D06B
:10449000FFB550404240504059404B40594000E029
:1044A000FFB5154F4C00640D03D0BC4204D10C0382
:1044B00014D80020090D09055C00640D03D0BC422E
:1044C00004D11C030AD800221B0D1B0501264B40FA
:1044D00009D44B4003D58B4200D18242FFBD9942A3
:1044E000FCD19042FFBD0B43DB1803431343F5D0CF
:1044F000C9434918FFBD0000FF07000000B5FFF7E2
:10450000CFFF804100BDC04600B5FFF7C9FF01D90C
:10451000002000BD012000BD00B5FFF7B9FF01D9A3
:10452000002000BD012000BD00B5FFF7B1FF8041B4
:1045300000BD012040054A00121804D85A00121884
:1045400001D800207047012070470020704700000C
:104550000021002805D17047C1174840401AFAD001
:10456000C90713B5064B1B6898470CBC441CA240F6
:104570001005120B0349091B09051943114310BD0E
:10458000546F02201F04000010B54C00620D802300
:10459000D218DB00D21A5B057E2A10DD9E3A13DAB0
:1045A000CC170903490819435242D1406400013431
:1045B0001532202A05DAD0400843604310BD0020A0
:1045C00010BD0846604310BDC80FC018013810BDAB
:1045D00018B4044B5B6AFC46019308BD24DF154BFD
:1045E00000100000546E022018B4044BDB6FFC4630
:1045F000019308BD7CDF954B00100000546E022033
:1046000018B4044BDB6CFC46019308BD4CDF414DF4
:1046100000100000546E0220132370B51C780F4D5B
:10462000012C0ED100230E499A000133A950202BF2
:10463000FAD10B4BAB640B48FFF766FC0A4B1860D2
:1046400070BD012CF5DD0948FFF766FC80220100F2
:10465000280000F0C7FD022CEDD1EAE7546E0220DD
:10466000714600104C330000546F02205344000088
:1046700007B5604601880A0A0230DF2AFAD1C9B2BA
:10468000820804D3028840880004104300E00068D8
:10469000014A5050039007BD546E02200FB403BC72
:1046A0000CBCF0B50124E407634000E0F0B50C0D4C
:1046B000CF0F661E3605891B640503D3C9434042EC
:1046C00000D30131640D03D0661CF60A07D0E41B49
:1046D00000207F00791C89078912803C24031D0D6E
:1046E000DF0F6E1E36059B1B6D0503D3DB43524265
:1046F00000D301336D0D03D06E1CF60A07D0ED1BFD
:1047000000227F007B1C9B079B12803D2D032F1BEB
:10471000661B58D4A446202E46DA20371400BC402D
:104720001D00BD40F24033412A4380185941CB0F50
:1047300005D0C943C0430022644250415141624602
:104740004D0D28D10D0D07D100281FD0241940414F
:104750004941013A0D0DF9D0640006D3013000D370
:104760000131002C01D140084000013A0BD4941CC7
:10477000E40A04D112051144DB071944F0BDD9073E
:10478000204B194300E0D9070020F0BD0029DDD1FE
:10479000002CDBD1F0BD0132C6074008CD0728430D
:1047A0004908002EE1D0D9E73C2E29DA203E4037D7
:1047B0001400BC4000D00124F24014431A00BB4056
:1047C0001C43D317ACE7AC46202F08DA2036040090
:1047D000B4400D00B540F84039412843A5E73C2FCF
:1047E0000CDA203F40360400B44000D00124F840E9
:1047F00004430800B1400C43C117EAE71000190058
:10480000002494E70000F07FF0B50C0D661E36051D
:10481000891BE60A6405640D02D0651CED0A04D00C
:10482000002001210905803C2403A4461C0D671EBD
:104830003F05DB1BE70A6405640D02D0651CED0A29
:1048400004D0002201231B05803C240377406444EC
:1048500097B484B296B27443070C7E43150C6F4331
:1048600080B26843361802D3012000043F18300498
:10487000350C00197D41844688B29AB250430C0C25
:1048800062431F0C7C438EB27E43921902D30126F1
:104890003604A4191604170C3618674101BC81B2FE
:1048A0009AB25143040C62431B0C5C4380B25843E0
:1048B000121802D30120000424181004130C40180D
:1048C00063412D185E410020474106BC88B293B277
:1048D00058430C0C6343120C544389B251435B1888
:1048E00002D301210904641819041A0C0918624141
:1048F0006D1856410020474118BCF902720D114352
:10490000F0026A0D1043ED020A0D03D16D1940410A
:104910004941013B124E9B1B7600B3420ED26D0003
:1049200007D30130002671416646354301D1400866
:1049300040001B05C918E4072144F0BD0BDA013320
:1049400006D1013004D101314F0D01D04908F2E701
:10495000E1070020F0BD013631050020EBE7000043
:10496000FF030000F0B51C0D671E3F05DB1BE70AC7
:104970006405640D02D0661CF60A04D000220123EF
:104980001B05803C2403D0252D060026F6432E6609
:104990001E096E66CE0FF619B44649004F0D02D0BF
:1049A0007E1CF60A03D000200021403F3F033E1B3F
:1049B000B600B444013F7F05C91B49082E6F01367C
:1049C00076089C02950D25437543ED137543AD1391
:1049D00001356D10F603761B0CB4CC02450D2C434B
:1049E000A2B2B3B25A43270C7B43350C6F43A4B237
:1049F0006C431B1902D3012424043F191C041D0C11
:104A0000A4187D4124196D41009A91B2ACB2614362
:104A1000170C7C432B0C5F4392B25A43A41802D369
:104A200001221204BF182204230C52187B41019C5E
:104A30006C431B19520ED9010A434401A01A81B2DA
:104A4000B2B2514303145A43360C734387B27743CF
:104A5000D617D21900277E4136049B191704160C6D
:104A60007F185E417316ED18F301002680337541FF
:104A7000A90F06D16400690AE8055B0A184309D248
:104A80002FE00422944480337541A90AA8059B0AAB
:104A9000184326D3404149412404009A019B0D004C
:104AA0005543641B4343E41A95B286B27543170C11
:104AB0007E43030C5F4392B25A43B61802D30122DD
:104AC0001204BF183204330C52197B4152429C41EC
:104AD000002C02D40022013051414008CA07104383
:104AE000490802B06246D7079210084BD218084B0B
:104AF0009A4203D212058918C919F0BD0020002A74
:104B000001DC3900F0BD01331905F5E7FD030000B4
:104B1000FE070000002200B5203200F004F8080073
:104B200000BD000000220B150AD410B5944600F019
:104B3000A7F81414013400DA0021CB17144C2047D5
:104B40000020002170476244343A0CD40C2A07DA62
:104B500004009140904052422032D440214310BD85
:104B6000D843D94310BD203207D40C46944052425A
:104B700020321141D040204310BD0800C917203217
:104B800003D452422032104110BD1800190010BD4C
:104B9000474B00104A00520D144BD21A13DDFF2A66
:104BA0001EDAD205CB0FDB071A43C300400F0903FF
:104BB000490A084310435B0001D301D0013070471C
:104BC0004308FBD2704702D0C80FC00770470A03E2
:104BD00012130132F8D1420F072AF5D1012200E069
:104BE000FF22C80F00028018C00570478003000034
:104BF00000210A00002104E000210A00C11704E09E
:104C00000022002306E0C0460022CB17584059403E
:104C1000C01A994130B5184CA21A002903D10100DD
:104C200010D00020203A4C1512D104D2013A0018BD
:104C300049414C0DFAD3114CA24204D212058918F5
:104C4000DB07C91830BDD243520D00200021F5E723
:104C500003D4013A00184941FBD50B324405C00A80
:104C60004D052843C90A640003D000246041614116
:104C7000E1E7E0D34408F8E732040000FE07000053
:104C80000A0DCC0F531E1B05C91A520503D3C94385
:104C9000404200D30131520D03D0531CDB0A07D030
:104CA000121B00206400611C89078912803A1203DC
:104CB000014BD21A70470000FF030000023225D4D6
:104CC0000C2A1CDA1125AD1A0B002B4108320735CE
:104CD0000600EE40904091403143F0CC63431A15FA
:104CE00000235A41554356435743BF02F4127605F9
:104CF00076196741ED177F19801BB94170470C2267
:104D00000020C917490001310905DBE70902030E3C
:104D1000194300025342203208D40C001941944038
:104D2000D840204300225041514170470800C91724
:104D3000203B2032F1D500200021002270470000E6
:104D4000F0B5FFF79DFF54A4FFF7B8FF002904DA80
:104D5000204C214D00196941013A04B4012752A6A3
:104D6000002201239B0730CEB446001BA9410BD47F
:104D70007E4220361D003D411C00B4401600FE401E
:104D8000344362416B4101E00019694166460137D5
:104D9000212FE8D185B29EB2754307147E43190CCA
:104DA0004F4384B24C43F117361900246141090482
:104DB0007F183404310C64197941A40F8800204312
:104DC00089178018594104BC52423E32FFF71DFF3B
:104DD000F0BD00006BDE73F4FD855C2CF0B54F0078
:104DE00050D27F154ED001374FD0FFF749FF04B4A2
:104DF0004902C20D1143400201272BA6B4460022EE
:104E000000237E4220360D003D410C00B4400600D8
:104E1000FE40344344414D41AE0F05D120002900EE
:104E2000664630CE121BAB410824A4440137212F23
:104E3000E7D18900891012184B4180BC17A413CC0C
:104E40000137784379437C434F05C912CD17C01908
:104E50006941A702A415CD17C9196C41DD17801847
:104E600059416C413E22CD17AC4208D000090E07D3
:104E700030430909260731432411043AF3E7FFF7C9
:104E8000C4FEF0BD02490020F0BD02490020F0BD83
:104E90000000F0FF0000F07FAAB800006BDE1300F6
:104EA000A3EF0F0021170B00F34B98BFEC23F3196E
:104EB000D6104DCDE3FB470E7AB9BC8ADBC189071A
:104EC000CC542C021846E103053083E7B029F801E1
:104ED0001E1FE0874505FE00249E41ACA9807F008F
:104EE0008117624515E03F00E610ABA902F81F00EC
:104EF0008858455500FE0F00C4AAA90A80FF070084
:104F000056455501E0FF0300ABA92A00F8FF010058
:104F100045550500FEFF0000AAAA0080FF7F0000A3
:104F2000551500E0FF3F0000AB0200F8FF1F000036
:104F3000550000FEFF0F00000B0080FFFF07000080
:104F40000100E0FFFF0300000000F8FFFF01000088
:104F50000000FEFFFF0000000080FFFF7F00000058
:104F600000E0FFFF3F00000000F8FFFF1F0000000F
:104F700000FEFFFF0F00000080FFFFFF07000000A2
:104F8000E0FFFFFF03000000F8FFFFFF010000004B
:104F9000FEFFFFFF00000000000000800000000096
:104FA000000000400000000051434343C9188C46F4
:104FB000110C83B24B4310B4040C614392B280B223
:104FC000504362431C041B0C001910BC59411304CC
:104FD000120CC018514161447047000048404140E4
:104FE00048400E4B5B6818470C4B1B6818470C4A2F
:104FF000936F9B0802D2094BDB681847F0B5146E1B
:10500000556E576F166FFFF7F6FF054A1466556623
:1050100057671667F0BD014B9B681847586F022011
:10502000000000D0491A002808D108467047000047
:10503000C10FC90700D54042002817D0F44603B479
:105040000B4B1B68984706BC81409E38404280311C
:1050500007D20B0607D04900490AC0051043084390
:1050600060470130F8E7490A8902F5E77047000018
:10507000546F022041000A0E80231B067E2A0BDD9E
:105080009E3A0BDAC1174002400818435242D04002
:10509000490001314843704700207047C00FC018D5
:1050A00001387047C0420DD300B5400040080021D0
:1050B00000F012F8002801D4404200BD8020000614
:1050C00000BD0000034BDB69FC4618471CDF815123
:1050D00000100000586F0220014B5B6A1847000067
:1050E000586F0220034BDB6FFC4618477CDF995159
:1050F00000100000586F0220132310B510481C78D0
:10510000FEF70AFF0100012C13D10E4C542220009F
:1051100000F068F815230C4A990001336250202BE7
:10512000FAD12262E2610948FEF7EEFE084B1860F0
:1051300010BD012CF7DD8022024800F053F8F2E7A1
:1051400053460000586F0220555100104C330000A8
:10515000546F022007B5604601880A0A0230DF2A30
:10516000FAD1C9B2820804D30288408800041043EF
:1051700000E00068014A5050039007BD586F0220BC
:105180000021C2158032803201D0024A104700202F
:1051900070470000CD2A0000C30FDB0741000A0E54
:1051A00007D0FF2A08D00909054A89181943400782
:1051B00070471900002070470249C918FAE700003B
:1051C000000000380000F07F01480421014B18471F
:1051D000C0060020293F0010014B1B681847000043
:1051E000C0060020014B5B6818470000C006002085
:1051F000030010B5080011001B68984710BD00009F
:10520000F8B50C000021437D0500160008008B4214
:105210001ED1110020002B689847F8BD002927D027
:10522000631E5B5C0D3B5A425341DBB2625C4F1C18
:105230000A2A0CD1002B0AD1814203DD091A2B68FE
:10524000201898470D4802212B68984738003900EC
:105250008E42E3DC86420DDD311A2B682018984718
:10526000A419013C23780D3B5A4253412B75D4E7D6
:105270002B7DDBE7002ED0DDF2E7C0469122011046
:1052800010B5FDF7CBFA0023054A12184B41002B4D
:1052900002DA0122034B5242034803F089FA10BD9F
:1052A00040420F00FFFFFF7F280F002010B502488B
:1052B00003F026FA10BDC046280F0020F0B585B0D7
:1052C00006000D001C000092FFF7DAFF01906B1C36
:1052D00003D1300003F08EF90500144F002C00D1EB
:1052E000134F144B1C68002C06D1019B002B01D0DE
:1052F000FFF7DCFF05B0F0BD2368002B13D00E4B89
:105300001B68002B01D09C420DD12A0031002000E7
:10531000B847009B002B06D002ABD91D0A230122FF
:1053200020000B70B8472469DDE7C046F15100103A
:1053300001520010346E0220386E022013B56B4605
:105340000400D81D002301211A000470FFF7B6FFE6
:10535000200016BD054B10B51C68002C00D110BDF7
:105360006368002B00D098472469F6E7346E02206A
:1053700070B5050003F03EF9040001000023280089
:105380000122FFF79BFFFFF7E5FF200070BD000043
:1053900010B50520FDF7E4FC014B186010BDC046B8
:1053A000946C022010B5FFF7F3FF10BD104A114BAB
:1053B00010B512184B419900900F0843990F5040B7
:1053C00059400D4A0D4BFFF7EFFD03004A01C00E97
:1053D0001043CA0E58405140094B0A4AFFF7E4FDFA
:1053E00003004A00C00F1043CA0F5840514010BD7F
:1053F000157C4A7FB979379EB9E5E41C6D4758BFE3
:10540000BB49D094EB113113F7B504000668456829
:105410008368C16808001A0028433243024331D030
:10542000300A2A06734002432F0A30060743180C3D
:10543000844669404A4001926246080410435F4036
:105440001A045740019A276042406260D80E4A0110
:105450005B01C90E02431943A260E16005220023EB
:1054600030002900FFF7A0FD0B000200410ED8011B
:105470000143D201580E104300230922FFF794FD87
:1054800003B0F0BDFDF7CAF90300C3E7F0B53B4B2D
:1054900085B09B690190DB0405D5E022384BDB6BBE
:1054A0001340402B01D1FDF74FFDEFF3058303932C
:1054B0000023002600270093324B1D685C68039B85
:1054C00028002100002B53D0FDF7B2F9EFF3108331
:1054D00072B602932C4B1B68002BFBD0BFF35F8F7F
:1054E000284B1A68AA4246D15B68A34243D13000D8
:1054F0003900012280197941204B0F00DB6900241B
:10550000134003431E00FDF789F90A23C0186141C7
:10551000002902DA01201D4940421A4B18605960E7
:10552000019B00995A1E01238A420CD1184C019A02
:105530002068616803F0FCF83043394306000F002F
:10554000012326606760BFF35F8F00210E4A116060
:10555000029A82F310888B42AED0009B01330093F5
:10556000009A019B9342A7D13000390005B0F0BDED
:10557000FDF774F8AAE70023E5E7C04600000640FF
:105580000080004080100020300100D0FFFFFF7F2E
:10559000680F0020F0B57C4B8BB01B78002B00D03F
:1055A00084E07A4C7A4AA44610685168794B840E9C
:1055B0008D012543840100940F04040C2743060445
:1055C0000195009C019DA4197D41241A8D41200064
:1055D00010CB2900029400240394029C039D00191F
:1055E00069416345E3D110605160FFF7DFFE069B20
:1055F0005840079B0690594004A80093079100F07B
:10560000E7F804980599FFF7D1FE089B5840099BDD
:1056100008905940402000930991FFF737FFFFF7AA
:10562000C5FE069B5840079B069059400093079182
:10563000FDF7F4F8FFF7BAFE089B5840099B089065
:10564000594000930991EFF3108672B6524C2368CB
:10565000002BFCD0BFF35F8F4B4D2B78002B1FD15D
:105660004E48591CCA00121812681F2A06D00B0097
:105670000429F5D1FDF768FC01235B42484A06A8DE
:105680001370484ADBB2DB009B1805225A60FFF713
:10569000BBFE1022444806A9FFF7A4FD01232B708E
:1056A000BFF35F8F0023236086F310883E4C1022E7
:1056B000210006A8FFF796FD3C4D2B78DBB2009346
:1056C000FDF7ACF8FFF772FE069B5840079B06906B
:1056D0005940012002930791FFF7D8FEFFF766FEBD
:1056E000089B334A5840099B0890594002932C4B21
:1056F00009911B78DB009B1898682E4A904201D1D3
:1057000000229A600021FFF751FE069B5840079B3C
:105710000690594002930791EFF3108772B61E4E20
:105720003368002BFCD0BFF35F8F2B78009A934235
:1057300011D0069A236861685A40079B06924B4035
:105740000793089BE1681A00A3685A40099B0892D6
:1057500000934B40099306A8FFF756FE10220090D5
:105760000291200006A9FFF73DFD2B780133DBB243
:105770002B70BFF35F8F0023336087F3108800988E
:1057800002990BB0F0BDC046009E0220002004200C
:10579000500F0020001C0420300100D00400034002
:1057A000B49D022008000340580F0020B59D022040
:1057B00000000340FFFFFF0010B5FFF7EBFE10BD38
:1057C00010B5024800F00CF810BDC046F89D02204C
:1057D00010B508220149FFF705FD10BDF89D022014
:1057E00070B50024092688B005003200210001A808
:1057F0000094FFF7F1FC3200210005A80494FFF7A4
:10580000EBFC4B236A466846137004A90D2202F094
:105810006FFF1521082228006944FFF7E3FC08B058
:1058200070BDF0B50700022487B006200191FDF796
:1058300097FA7B683A1D234004933B1D0593C023D0
:105840009B011343019D1C60019B0390D90D5802DD
:10585000AA02AB0D80256D00AC4625000234002B5A
:1058600007D1039EB24204D812184B416445F4D1CB
:105870002500FF2680236E435B000293029C3100CB
:10588000631E03980293FEF78BFB019B984218D985
:10589000FF2280203D613968631E1B024B401202CB
:1058A000400113403843036080232100059A9B0187
:1058B0001343049A694303981A60FEF771FB07B01B
:1058C000F0BD029B761B012BD8D11C00E0E7000045
:1058D000194B70B5C3185A42534180225B421B0CCE
:1058E00092021B049B18154A04001360144A1548C1
:1058F00013601D0082689543FBD12000FFF791FFE4
:10590000C0220221231D92011A43656811600722FB
:1059100026680D407240CF2632408026760126430D
:1059200032608022243492011343144303221D6009
:105930002260196070BDC0460040FCBF00E000401E
:1059400000F0004000C0004010B501000148FCF725
:1059500055FA10BD7670022007B5044B0100009384
:1059600000220B230248FCF71FFA0EBD9322011000
:105970007670022037B5D0246B4680252406AD030F
:10598000D91D0870A56180239B02A36101220248F2
:1059900002F0E6FE656137BD00C0034070B5D0245B
:1059A00080252406AD030A00A56180239B02636164
:1059B0000100024802F0D4FE656170BD00C00340E2
:1059C000F0B5D024802585B002AB01912406AD034B
:1059D0000292D91D0870A5618026B602A661074F04
:1059E0000122380002F0BCFE66613800029A01997B
:1059F00002F0B6FE656105B0F0BDC04600C00340D0
:105A000070B5D02480262406B603A66180256D03D8
:105A100032206561FCF780FEA5613220FCF77CFE38
:105A200096206561FCF778FE666170BD10B50120B7
:105A3000FFF7A0FF9620FCF76FFE10BD10B51120F8
:105A4000FFF798FF10BD10B52120FFF793FF10BDA1
:105A500007B56B46D91D087001223A20FFF7B0FF49
:105A600007BD0000A0210B4B10B50B4A1870490070
:105A70000A4BC40709D4F024198014800849012274
:105A800009183620FFF79CFF10BD1180F0221A8004
:105A9000F4E7C0467B700220707002206E70022016
:105AA000B122011073B51C001600013901AD40BAD6
:105AB00049BA28806980042229002A20013CFFF786
:105AC0007FFF76BA290004222B2064BA2E806C80D6
:105AD000FFF776FF2C20FFF74DFF73BD0023064A2A
